:100000000C9432000C944F000C94BA000C944F00E6
:100010000C944F000C944F000C944F000C945E0114
:100020000C944F000C943F010C944F000C944F0023
:100030000C944F000C944F000C944F000C944F0004
:100040000C944F000C944F000C944F000C944F00F4
:100050000C944F000C944F000C944F000C944F00E4
:100060000C944F0011241FBECFEFD0E1DEBFCDBFF7
:1000700011E0A0E0B1E0ECECF3E002C005900D92DD
:10008000A230B107D9F721E0A2E0B1E001C01D9292
:10009000AB30B207E1F70E9477010C94E4010C94B5
:1000A0000000109281008091030190910401813041
:1000B000910549F08230910551F0892B59F485E082
:1000C00080938100089584E080938100089583E007
:1000D00080938100089580910501909106018130FF
:1000E000910589F08230910519F1892B81F51DB8B0
:1000F0008FEF8093D9001092810081E080936F0090
:100100000E94510024C01DB88FEF8093D900109237
:10011000810082E080936F0088EC90E090938900EA
:10012000809388008AEA8093DA000E9451000FC011
:100130001092D90080E284B988EC90E09093890015
:100140008093880080E4809380000E945100809119
:10015000070190910801892B29F4109281001092D7
:10016000DA001EB8089587E080936B0080E18DBBB4
:10017000789408951F920F920FB60F9211242F9327
:100180003F934F935F936F937F938F939F93AF931F
:10019000BF93EF93FF93F894609B13C08091070186
:1001A00090910801892B39F481E090E09093080147
:1001B0008093070104C010920801109207010E9469
:1001C0006B00619B13C08091050190910601833003
:1001D000910529F4109206011092050105C00196BF
:1001E00090930601809305010E946B00629B35C0CD
:1001F0008091000190910101892BB9F08091030158
:100200009091040101969093040180930301039758
:1002100029F410920101109200011DC081E090E0CC
:10022000909301018093000116C080910301909189
:10023000040101979093040180930301892B39F401
:1002400081E090E0909301018093000104C010923E
:100250000101109200010E9451007894FF91EF91EA
:10026000BF91AF919F918F917F916F915F914F91CE
:100270003F912F910F900FBE0F901F9018951F92D6
:100280000F920FB60F9211248F939F9381E090E00D
:100290000090020102C0880F991F0A94E2F7809330
:1002A000DA00809102018F5F8770809302019F9135
:1002B0008F910F900FBE0F901F9018951F920F9265
:1002C0000FB60F9211248F93EF93FF93EAEDF0E0B6
:1002D0008081809580831092850010928400FF9128
:1002E000EF918F910F900FBE0F901F9018958FEF89
:1002F0008093D9001DB80E94B300CAEDD0E00F2E44
:10030000F5E5CF2EF02D0F2EFAEADF2EF02D0F2E71
:10031000F9E0EF2EF1E0FF2EF02D01E010E08091EA
:10032000070190910801892B39F418828091070107
:1003300090910801892B99F3809105019091060114
:10034000892B11F5C801F701008002C0880F991FA1
:100350000A94E2F788830E945100809109019091EC
:100360000A018730910529F410920A0110920901BF
:1003700005C0019690930A018093090180910701BD
:1003800090910801892B59F2809105019091060105
:10039000019769F4C8820E945100D8820E945100DE
:1003A0008091070190910801892B09F4B8CF8091C1
:1003B000050190910601029709F0B1CF88818095DF
:0C03C00088830E945100ABCFF894FFCF5F
:0203CC0001002E
:00000001FF
