S01700004763634170706C69636174696F6E312E737265635B
S11300000C9432000C944F000C944F000C944F004D
S11300100C944F000C944F000C944F000C944F0020
S11300200C944F000C944F000C944F000C944F0010
S11300300C944F000C944F000C944F000C944F0000
S11300400C944F000C944F000C944F000C944F00F0
S11300500C944F000C944F000C944F000C944F00E0
S11300600C944F0011241FBECFEFD0E1DEBFCDBFF3
S113007011E0A0E0B1E0E2EFF1E002C005900D92E2
S1130080A030B107D9F721E0A0E0B1E001C01D9292
S1130090A830B207E1F70E9471000C94F7000C94A9
S11300A000008130910561F08230910581F0892B47
S11300B0B9F487EA91E60197F1F700C000000895CA
S11300C083E294EF0197F1F700C0000008959FE9DF
S11300D026E881E0915020408040E1F700C0000014
S11300E008958FEF8093D90087E080936B0081E0BF
S11300F08DBB7894CAEDD0E00F2EF5E5CF2EF02D10
S11301000F2EFAEADF2EF02D0F2EF6E0EF2EF1E09F
S1130110FF2EF02D01E010E0809104019091050183
S1130120892B69F418828FE493EC0197F1F700C0EE
S113013000008091040190910501892B69F380915D
S1130140020190910301892B31F5C801F701008068
S113015002C0880F991F0A94E2F7888380910001F6
S1130160909101010E945100809106019091070134
S11301708730910529F4109207011092060105C0F9
S11301800196909307018093060180910401909158
S11301900501892B09F280910201909103010197D5
S11301A0A9F4C88280910001909101010E9451003C
S11301B0D88280910001909101010E9451008091A8
S11301C0040190910501892B09F4A6CF80910201C5
S11301D090910301029709F09FCF888180958883CD
S11301E080910001909101010E94510095CFF894F3
S10501F0FFCF3B
S9030000FC
